{
  "contractName": "UserDetails",
  "abi": [
    {
      "inputs": [
        {
          "internalType": "string",
          "name": "_name",
          "type": "string"
        },
        {
          "internalType": "uint256",
          "name": "_age",
          "type": "uint256"
        },
        {
          "internalType": "string",
          "name": "_addressDetails",
          "type": "string"
        }
      ],
      "name": "setDetails",
      "outputs": [],
      "stateMutability": "nonpayable",
      "type": "function"
    },
    {
      "inputs": [
        {
          "internalType": "address",
          "name": "_address",
          "type": "address"
        }
      ],
      "name": "getDetails",
      "outputs": [
        {
          "internalType": "string",
          "name": "",
          "type": "string"
        },
        {
          "internalType": "uint256",
          "name": "",
          "type": "uint256"
        },
        {
          "internalType": "string",
          "name": "",
          "type": "string"
        }
      ],
      "stateMutability": "view",
      "type": "function",
      "constant": true
    }
  ],
  "bytecode": "0x608060405234801561001057600080fd5b50610a92806100206000396000f3fe608060405234801561001057600080fd5b50600436106100365760003560e01c806330289c611461003b578063ea45ccf51461006d575b600080fd5b6100556004803603810190610050919061040b565b610089565b604051610064939291906104e1565b60405180910390f35b61008760048036038101906100829190610687565b6102fc565b005b60606000606060008060008673ffffffffffffffffffffffffffffffffffffffff1673ffffffffffffffffffffffffffffffffffffffff1681526020019081526020016000206001015411610113576040517f08c379a000000000000000000000000000000000000000000000000000000000815260040161010a9061075e565b60405180910390fd5b6000808573ffffffffffffffffffffffffffffffffffffffff1673ffffffffffffffffffffffffffffffffffffffff1681526020019081526020016000206000016000808673ffffffffffffffffffffffffffffffffffffffff1673ffffffffffffffffffffffffffffffffffffffff168152602001908152602001600020600101546000808773ffffffffffffffffffffffffffffffffffffffff1673ffffffffffffffffffffffffffffffffffffffff1681526020019081526020016000206002018280546101e3906107ad565b80601f016020809104026020016040519081016040528092919081815260200182805461020f906107ad565b801561025c5780601f106102315761010080835404028352916020019161025c565b820191906000526020600020905b81548152906001019060200180831161023f57829003601f168201915b5050505050925080805461026f906107ad565b80601f016020809104026020016040519081016040528092919081815260200182805461029b906107ad565b80156102e85780601f106102bd576101008083540402835291602001916102e8565b820191906000526020600020905b8154815290600101906020018083116102cb57829003601f168201915b505050505090509250925092509193909250565b60006040518060600160405280858152602001848152602001838152509050806000803373ffffffffffffffffffffffffffffffffffffffff1673ffffffffffffffffffffffffffffffffffffffff168152602001908152602001600020600082015181600001908161036f919061098a565b5060208201518160010155604082015181600201908161038f919061098a565b5090505050505050565b6000604051905090565b600080fd5b600080fd5b600073ffffffffffffffffffffffffffffffffffffffff82169050919050565b60006103d8826103ad565b9050919050565b6103e8816103cd565b81146103f357600080fd5b50565b600081359050610405816103df565b92915050565b600060208284031215610421576104206103a3565b5b600061042f848285016103f6565b91505092915050565b600081519050919050565b600082825260208201905092915050565b60005b83811015610472578082015181840152602081019050610457565b60008484015250505050565b6000601f19601f8301169050919050565b600061049a82610438565b6104a48185610443565b93506104b4818560208601610454565b6104bd8161047e565b840191505092915050565b6000819050919050565b6104db816104c8565b82525050565b600060608201905081810360008301526104fb818661048f565b905061050a60208301856104d2565b818103604083015261051c818461048f565b9050949350505050565b600080fd5b600080fd5b7f4e487b7100000000000000000000000000000000000000000000000000000000600052604160045260246000fd5b6105688261047e565b810181811067ffffffffffffffff8211171561058757610586610530565b5b80604052505050565b600061059a610399565b90506105a6828261055f565b919050565b600067ffffffffffffffff8211156105c6576105c5610530565b5b6105cf8261047e565b9050602081019050919050565b82818337600083830152505050565b60006105fe6105f9846105ab565b610590565b90508281526020810184848401111561061a5761061961052b565b5b6106258482856105dc565b509392505050565b600082601f83011261064257610641610526565b5b81356106528482602086016105eb565b91505092915050565b610664816104c8565b811461066f57600080fd5b50565b6000813590506106818161065b565b92915050565b6000806000606084860312156106a05761069f6103a3565b5b600084013567ffffffffffffffff8111156106be576106bd6103a8565b5b6106ca8682870161062d565b93505060206106db86828701610672565b925050604084013567ffffffffffffffff8111156106fc576106fb6103a8565b5b6107088682870161062d565b9150509250925092565b7f4164647265737320646f6573206e6f7420657869737400000000000000000000600082015250565b6000610748601683610443565b915061075382610712565b602082019050919050565b600060208201905081810360008301526107778161073b565b9050919050565b7f4e487b7100000000000000000000000000000000000000000000000000000000600052602260045260246000fd5b600060028204905060018216806107c557607f821691505b6020821081036107d8576107d761077e565b5b50919050565b60008190508160005260206000209050919050565b60006020601f8301049050919050565b600082821b905092915050565b6000600883026108407fffffffffffffffffffffffffffffffffffffffffffffffffffffffffffffffff82610803565b61084a8683610803565b95508019841693508086168417925050509392505050565b6000819050919050565b600061088761088261087d846104c8565b610862565b6104c8565b9050919050565b6000819050919050565b6108a18361086c565b6108b56108ad8261088e565b848454610810565b825550505050565b600090565b6108ca6108bd565b6108d5818484610898565b505050565b5b818110156108f9576108ee6000826108c2565b6001810190506108db565b5050565b601f82111561093e5761090f816107de565b610918846107f3565b81016020851015610927578190505b61093b610933856107f3565b8301826108da565b50505b505050565b600082821c905092915050565b600061096160001984600802610943565b1980831691505092915050565b600061097a8383610950565b9150826002028217905092915050565b61099382610438565b67ffffffffffffffff8111156109ac576109ab610530565b5b6109b682546107ad565b6109c18282856108fd565b600060209050601f8311600181146109f457600084156109e2578287015190505b6109ec858261096e565b865550610a54565b601f198416610a02866107de565b60005b82811015610a2a57848901518255600182019150602085019450602081019050610a05565b86831015610a475784890151610a43601f891682610950565b8355505b6001600288020188555050505b50505050505056fea264697066735822122044c84c955215a41f23248a2e55bd34373a726b7950f6598ea3154ce2a0eb190064736f6c63430008130033",
  "immutableReferences": {},
  "source": "// SPDX-License-Identifier: MIT\r\n\r\npragma solidity ^0.8.0;\r\n\r\ncontract UserDetails {\r\n    struct User {\r\n        string name;\r\n        uint age;\r\n        string addressDetails;\r\n    }\r\n    \r\n    mapping(address => User) users;\r\n\r\n    function setDetails(string memory _name, uint _age, string memory _addressDetails) public {\r\n        // Ensure that the address does not already exist in the mapping\r\n        // require(users[msg.sender].age == 0, \"Address already exists\");\r\n        \r\n        // Create the user object and add it to the mapping\r\n        User memory newUser = User(_name, _age, _addressDetails);\r\n        users[msg.sender] = newUser;\r\n    }\r\n\r\n    function getDetails(address _address) public view returns(string memory, uint, string memory) {\r\n        // Ensure that the address exists in the mapping\r\n        require(users[_address].age > 0, \"Address does not exist\");\r\n        \r\n        // Return the user details\r\n        return (users[_address].name, users[_address].age, users[_address].addressDetails);\r\n    }\r\n}",
  "sourcePath": "D:\\Code Projects\\Detail Upload\\contracts\\Upload.sol",
  "compiler": {
    "name": "solc",
    "version": "0.8.19+commit.7dd6d404.Emscripten.clang"
  },
  "schemaVersion": "3.4.13",
  "updatedAt": "2023-05-20T09:00:19.304Z",
  "networkType": "ethereum",
  "devdoc": {
    "kind": "dev",
    "methods": {},
    "version": 1
  },
  "userdoc": {
    "kind": "user",
    "methods": {},
    "version": 1
  }
}